{
  "_format": "hh-sol-artifact-1",
  "contractName": "AcademicCredential",
  "sourceName": "contracts/AcademicCredential.sol",
  "abi": [
    {
      "inputs": [],
      "stateMutability": "nonpayable",
      "type": "constructor"
    },
    {
      "inputs": [],
      "name": "AccessControlBadConfirmation",
      "type": "error"
    },
    {
      "inputs": [
        {
          "internalType": "address",
          "name": "account",
          "type": "address"
        },
        {
          "internalType": "bytes32",
          "name": "neededRole",
          "type": "bytes32"
        }
      ],
      "name": "AccessControlUnauthorizedAccount",
      "type": "error"
    },
    {
      "inputs": [],
      "name": "CertificateAlreadyExists",
      "type": "error"
    },
    {
      "inputs": [],
      "name": "CertificateAlreadyRevoked",
      "type": "error"
    },
    {
      "inputs": [],
      "name": "CertificateNotFound",
      "type": "error"
    },
    {
      "inputs": [],
      "name": "EmptyValue",
      "type": "error"
    },
    {
      "inputs": [],
      "name": "InvalidAddress",
      "type": "error"
    },
    {
      "inputs": [],
      "name": "ReentrancyGuardReentrantCall",
      "type": "error"
    },
    {
      "anonymous": false,
      "inputs": [
        {
          "indexed": false,
          "internalType": "uint256",
          "name": "tokenId",
          "type": "uint256"
        },
        {
          "indexed": false,
          "internalType": "address",
          "name": "studentAddress",
          "type": "address"
        },
        {
          "indexed": false,
          "internalType": "string",
          "name": "certificateId",
          "type": "string"
        },
        {
          "indexed": false,
          "internalType": "string",
          "name": "ipfsHash",
          "type": "string"
        }
      ],
      "name": "CertificateIssued",
      "type": "event"
    },
    {
      "anonymous": false,
      "inputs": [
        {
          "indexed": false,
          "internalType": "string",
          "name": "certificateId",
          "type": "string"
        },
        {
          "indexed": false,
          "internalType": "uint256",
          "name": "timestamp",
          "type": "uint256"
        }
      ],
      "name": "CertificateRevoked",
      "type": "event"
    },
    {
      "anonymous": false,
      "inputs": [
        {
          "indexed": true,
          "internalType": "bytes32",
          "name": "role",
          "type": "bytes32"
        },
        {
          "indexed": true,
          "internalType": "bytes32",
          "name": "previousAdminRole",
          "type": "bytes32"
        },
        {
          "indexed": true,
          "internalType": "bytes32",
          "name": "newAdminRole",
          "type": "bytes32"
        }
      ],
      "name": "RoleAdminChanged",
      "type": "event"
    },
    {
      "anonymous": false,
      "inputs": [
        {
          "indexed": true,
          "internalType": "bytes32",
          "name": "role",
          "type": "bytes32"
        },
        {
          "indexed": true,
          "internalType": "address",
          "name": "account",
          "type": "address"
        },
        {
          "indexed": true,
          "internalType": "address",
          "name": "sender",
          "type": "address"
        }
      ],
      "name": "RoleGranted",
      "type": "event"
    },
    {
      "anonymous": false,
      "inputs": [
        {
          "indexed": true,
          "internalType": "bytes32",
          "name": "role",
          "type": "bytes32"
        },
        {
          "indexed": true,
          "internalType": "address",
          "name": "account",
          "type": "address"
        },
        {
          "indexed": true,
          "internalType": "address",
          "name": "sender",
          "type": "address"
        }
      ],
      "name": "RoleRevoked",
      "type": "event"
    },
    {
      "inputs": [],
      "name": "DEFAULT_ADMIN_ROLE",
      "outputs": [
        {
          "internalType": "bytes32",
          "name": "",
          "type": "bytes32"
        }
      ],
      "stateMutability": "view",
      "type": "function"
    },
    {
      "inputs": [],
      "name": "INSTITUTION_ADMIN_ROLE",
      "outputs": [
        {
          "internalType": "bytes32",
          "name": "",
          "type": "bytes32"
        }
      ],
      "stateMutability": "view",
      "type": "function"
    },
    {
      "inputs": [
        {
          "internalType": "uint256",
          "name": "tokenId",
          "type": "uint256"
        }
      ],
      "name": "getCertificate",
      "outputs": [
        {
          "components": [
            {
              "internalType": "uint256",
              "name": "tokenId",
              "type": "uint256"
            },
            {
              "internalType": "address",
              "name": "studentAddress",
              "type": "address"
            },
            {
              "internalType": "string",
              "name": "ipfsHash",
              "type": "string"
            },
            {
              "internalType": "string",
              "name": "studentName",
              "type": "string"
            },
            {
              "internalType": "string",
              "name": "programName",
              "type": "string"
            },
            {
              "internalType": "string",
              "name": "graduationDate",
              "type": "string"
            },
            {
              "internalType": "string",
              "name": "institutionName",
              "type": "string"
            },
            {
              "internalType": "uint256",
              "name": "issueDate",
              "type": "uint256"
            },
            {
              "internalType": "bool",
              "name": "isRevoked",
              "type": "bool"
            },
            {
              "internalType": "string",
              "name": "certificateId",
              "type": "string"
            }
          ],
          "internalType": "struct AcademicCredential.Certificate",
          "name": "",
          "type": "tuple"
        }
      ],
      "stateMutability": "view",
      "type": "function"
    },
    {
      "inputs": [
        {
          "internalType": "address",
          "name": "student",
          "type": "address"
        }
      ],
      "name": "getCertificatesByStudent",
      "outputs": [
        {
          "components": [
            {
              "internalType": "uint256",
              "name": "tokenId",
              "type": "uint256"
            },
            {
              "internalType": "address",
              "name": "studentAddress",
              "type": "address"
            },
            {
              "internalType": "string",
              "name": "ipfsHash",
              "type": "string"
            },
            {
              "internalType": "string",
              "name": "studentName",
              "type": "string"
            },
            {
              "internalType": "string",
              "name": "programName",
              "type": "string"
            },
            {
              "internalType": "string",
              "name": "graduationDate",
              "type": "string"
            },
            {
              "internalType": "string",
              "name": "institutionName",
              "type": "string"
            },
            {
              "internalType": "uint256",
              "name": "issueDate",
              "type": "uint256"
            },
            {
              "internalType": "bool",
              "name": "isRevoked",
              "type": "bool"
            },
            {
              "internalType": "string",
              "name": "certificateId",
              "type": "string"
            }
          ],
          "internalType": "struct AcademicCredential.Certificate[]",
          "name": "",
          "type": "tuple[]"
        }
      ],
      "stateMutability": "view",
      "type": "function"
    },
    {
      "inputs": [
        {
          "internalType": "bytes32",
          "name": "role",
          "type": "bytes32"
        }
      ],
      "name": "getRoleAdmin",
      "outputs": [
        {
          "internalType": "bytes32",
          "name": "",
          "type": "bytes32"
        }
      ],
      "stateMutability": "view",
      "type": "function"
    },
    {
      "inputs": [
        {
          "internalType": "address",
          "name": "account",
          "type": "address"
        }
      ],
      "name": "grantInstitutionAdmin",
      "outputs": [],
      "stateMutability": "nonpayable",
      "type": "function"
    },
    {
      "inputs": [
        {
          "internalType": "bytes32",
          "name": "role",
          "type": "bytes32"
        },
        {
          "internalType": "address",
          "name": "account",
          "type": "address"
        }
      ],
      "name": "grantRole",
      "outputs": [],
      "stateMutability": "nonpayable",
      "type": "function"
    },
    {
      "inputs": [
        {
          "internalType": "bytes32",
          "name": "role",
          "type": "bytes32"
        },
        {
          "internalType": "address",
          "name": "account",
          "type": "address"
        }
      ],
      "name": "hasRole",
      "outputs": [
        {
          "internalType": "bool",
          "name": "",
          "type": "bool"
        }
      ],
      "stateMutability": "view",
      "type": "function"
    },
    {
      "inputs": [
        {
          "internalType": "string",
          "name": "certificateId",
          "type": "string"
        }
      ],
      "name": "isValidCertificate",
      "outputs": [
        {
          "internalType": "bool",
          "name": "",
          "type": "bool"
        }
      ],
      "stateMutability": "view",
      "type": "function"
    },
    {
      "inputs": [
        {
          "internalType": "address",
          "name": "studentAddress",
          "type": "address"
        },
        {
          "internalType": "string",
          "name": "ipfsHash",
          "type": "string"
        },
        {
          "internalType": "string",
          "name": "studentName",
          "type": "string"
        },
        {
          "internalType": "string",
          "name": "programName",
          "type": "string"
        },
        {
          "internalType": "string",
          "name": "graduationDate",
          "type": "string"
        },
        {
          "internalType": "string",
          "name": "institutionName",
          "type": "string"
        },
        {
          "internalType": "string",
          "name": "certificateId",
          "type": "string"
        }
      ],
      "name": "issueCertificate",
      "outputs": [
        {
          "internalType": "uint256",
          "name": "tokenId",
          "type": "uint256"
        }
      ],
      "stateMutability": "nonpayable",
      "type": "function"
    },
    {
      "inputs": [
        {
          "internalType": "bytes32",
          "name": "role",
          "type": "bytes32"
        },
        {
          "internalType": "address",
          "name": "callerConfirmation",
          "type": "address"
        }
      ],
      "name": "renounceRole",
      "outputs": [],
      "stateMutability": "nonpayable",
      "type": "function"
    },
    {
      "inputs": [
        {
          "internalType": "string",
          "name": "certificateId",
          "type": "string"
        }
      ],
      "name": "revokeCertificate",
      "outputs": [],
      "stateMutability": "nonpayable",
      "type": "function"
    },
    {
      "inputs": [
        {
          "internalType": "address",
          "name": "account",
          "type": "address"
        }
      ],
      "name": "revokeInstitutionAdmin",
      "outputs": [],
      "stateMutability": "nonpayable",
      "type": "function"
    },
    {
      "inputs": [
        {
          "internalType": "bytes32",
          "name": "role",
          "type": "bytes32"
        },
        {
          "internalType": "address",
          "name": "account",
          "type": "address"
        }
      ],
      "name": "revokeRole",
      "outputs": [],
      "stateMutability": "nonpayable",
      "type": "function"
    },
    {
      "inputs": [
        {
          "internalType": "bytes4",
          "name": "interfaceId",
          "type": "bytes4"
        }
      ],
      "name": "supportsInterface",
      "outputs": [
        {
          "internalType": "bool",
          "name": "",
          "type": "bool"
        }
      ],
      "stateMutability": "view",
      "type": "function"
    },
    {
      "inputs": [],
      "name": "totalCertificates",
      "outputs": [
        {
          "internalType": "uint256",
          "name": "",
          "type": "uint256"
        }
      ],
      "stateMutability": "view",
      "type": "function"
    },
    {
      "inputs": [
        {
          "internalType": "string",
          "name": "certificateId",
          "type": "string"
        }
      ],
      "name": "verifyCertificate",
      "outputs": [
        {
          "components": [
            {
              "internalType": "uint256",
              "name": "tokenId",
              "type": "uint256"
            },
            {
              "internalType": "address",
              "name": "studentAddress",
              "type": "address"
            },
            {
              "internalType": "string",
              "name": "ipfsHash",
              "type": "string"
            },
            {
              "internalType": "string",
              "name": "studentName",
              "type": "string"
            },
            {
              "internalType": "string",
              "name": "programName",
              "type": "string"
            },
            {
              "internalType": "string",
              "name": "graduationDate",
              "type": "string"
            },
            {
              "internalType": "string",
              "name": "institutionName",
              "type": "string"
            },
            {
              "internalType": "uint256",
              "name": "issueDate",
              "type": "uint256"
            },
            {
              "internalType": "bool",
              "name": "isRevoked",
              "type": "bool"
            },
            {
              "internalType": "string",
              "name": "certificateId",
              "type": "string"
            }
          ],
          "internalType": "struct AcademicCredential.Certificate",
          "name": "certificate",
          "type": "tuple"
        },
        {
          "internalType": "bool",
          "name": "isValid",
          "type": "bool"
        }
      ],
      "stateMutability": "view",
      "type": "function"
    }
  ],
  "bytecode": "0x60806040523461004b5760017f9b779b17422d0df92223018b32b4d1fa46e071723d6817e2486d003becc55f0055600160055561003b33610050565b50604051611a5290816100e18239f35b600080fd5b6001600160a01b031660008181527fad3228b676f7d3cd4284a5443f17f1962b36e491b30a40b2405849e597ba5fb5602052604081205490919060ff166100dc57818052816020526040822081835260205260408220600160ff1982541617905533917f2f8788117e7eff1d82e926ec794901d17c78024a50270940304540a733656f0d8180a4600190565b509056fe61012080604052600436101561001457600080fd5b60003560e01c90816301ffc9a71461118b57508063142e154214611085578063248a9ca3146110565780632f2ff15d1461101757806336568abe14610fd057806351640fee14610ec2578063596b772f14610e81578063731f80d614610e585780638b23d87514610dfc57806391d1485414610daf5780639248eb2b14610d86578063970391781461036d578063a217fddf14610351578063b5164b381461030c578063d547741f146102cb578063ea092518146101095763fd8d0e72146100db57600080fd5b346101045760003660031901126101045760206040516000805160206119fd8339815191528152f35b600080fd5b3461010457602080600319360112610104576001600160a01b038061012c611221565b16600052600380835260406000209182549161014783611977565b936101556040519586611638565b838552601f1961016485611977565b018660005b8281106102b55750505060005b8481106101db57604080518881528751818a01819052600092600582901b83018101918a8c01918c9085015b8287106101af5785850386f35b9091929382806101cb600193603f198a82030186528851611277565b96019201960195929190926101a2565b806101e96102b092846116e8565b905490851b1c600052600180895261028f60096040600020886040519461020f8661161c565b82548652820154168c850152610227600282016117c8565b60408501526102378882016117c8565b6060850152610248600482016117c8565b6080850152610259600582016117c8565b60a085015261026a600682016117c8565b60c0850152600781015460e085015260ff6008820154161515610100850152016117c8565b61012082015261029f828961198e565b526102aa818861198e565b5061169f565b610176565b6102bd611779565b82828a010152018790610169565b346101045760403660031901126101045761030a6004356102ea61120b565b908060005260006020526103056001604060002001546113cf565b6115a7565b005b34610104576020366003190112610104576004356001600160401b0381116101045761034761034160209236906004016111de565b906119a2565b6040519015158152f35b3461010457600036600319011261010457602060405160008152f35b346101045760e036600319011261010457610386611221565b6024356001600160401b038111610104576103a59036906004016111de565b906101005260e0526044356001600160401b038111610104576103cc9036906004016111de565b906064356001600160401b038111610104576103ec9036906004016111de565b906084356001600160401b0381116101045761040c9036906004016111de565b9060a4356001600160401b0381116101045761042c9036906004016111de565b94909360c4356001600160401b0381116101045761044e9036906004016111de565b60c05260a05261045c61132d565b610464611737565b6001600160a01b03891615610d745760e051158015610d6c575b8015610d64575b610d405783158015610d5c575b8015610d52575b610d40576104ac3660c05160a051611659565b6020815191012097886000526002602052604060002054610d2e576104d66005548060805261169f565b6005556080519788600052600160205260406000209889556001890160018060a01b038c166bffffffffffffffffffffffff60a01b8254161790556001600160401b0360e051116108455761052e60028a01546116ae565b601f8111610ce4575b50600060e051601f8111600114610c715750600060e0519182610c63575b508160011b916000199060031b1c19161760028a01555b6001600160401b03821161084557819061058960038b01546116ae565b601f8111610c10575b50600090601f8311600114610b9f57600092610b94575b50508160011b916000199060031b1c19161760038801555b6001600160401b0382116108455781906105de60048901546116ae565b601f8111610b41575b50600090601f8311600114610ad057600092610ac5575b50508160011b916000199060031b1c19161760048601555b6001600160401b03821161084557819061063360058701546116ae565b601f8111610a72575b50600090601f8311600114610a01576000926109f6575b50508160011b916000199060031b1c19161760058401555b6001600160401b03821161084557819061068860068501546116ae565b601f81116109a3575b50600090601f831160011461093257600092610927575b50508160011b916000199060031b1c19161760068201555b4260078201556008810160ff1981541690556001600160401b0360c05111610845576106ef60098201546116ae565b601f81116108dd575b5060c05160006001601f8311146108685760099150600060c051918261085b575b508160011b916000199060031b1c1916179101555b60005260026020526080518060406000205560005260046020526040600020600160ff1982541617905560018060a01b03811660005260036020526040600020908154916801000000000000000083101561084557826107b49160017f8155ad64ed4454333355c45532f2f3ba06e3242f30944f6acdf9b6b989453c25950181556116e8565b919080549260031b6080519384821b91600019901b191617905560405191825260018060a01b0316602082015260806040820152806108126107fe6080830160c05160a051611716565b828103606084015260e05161010051611716565b0390a160017f9b779b17422d0df92223018b32b4d1fa46e071723d6817e2486d003becc55f005560206040516080518152f35b634e487b7160e01b600052604160045260246000fd5b905060a051013586610719565b6009830160005260206000209060009060a051915b601f19851681106108c55750918391600193600995601f198116106108ab575b505050811b0191015561072e565b0135600019600384901b60f8161c1916905586808061089d565b9092602060018192868601358155019401910161087d565b60098201600052602060002060c0516020601f820160051c83019110610920575b601f830160051c820181106109145750506106f8565b600081556001016108fe565b50806108fe565b0135905085806106a8565b909250600684016000526020600020906000935b601f198416851061098b576001945083601f19811610610971575b505050811b0160068201556106c0565b0135600019600384901b60f8161c19169055858080610961565b81810135835560209485019460019093019201610946565b909150600684016000526020600020601f840160051c8101602085106109ef575b90849392915b601f830160051c820181106109e0575050610691565b600081558594506001016109ca565b50806109c4565b013590508780610653565b909250600586016000526020600020906000935b601f1984168510610a5a576001945083601f19811610610a40575b505050811b01600584015561066b565b0135600019600384901b60f8161c19169055878080610a30565b81810135835560209485019460019093019201610a15565b909150600586016000526020600020601f840160051c810160208510610abe575b90849392915b601f830160051c82018110610aaf57505061063c565b60008155859450600101610a99565b5080610a93565b0135905089806105fe565b909250600488016000526020600020906000935b601f1984168510610b29576001945083601f19811610610b0f575b505050811b016004860155610616565b0135600019600384901b60f8161c19169055898080610aff565b81810135835560209485019460019093019201610ae4565b909150600488016000526020600020601f840160051c810160208510610b8d575b90849392915b601f830160051c82018110610b7e5750506105e7565b60008155859450600101610b68565b5080610b62565b013590508b806105a9565b90925060038a016000526020600020906000935b601f1984168510610bf8576001945083601f19811610610bde575b505050811b0160038801556105c1565b0135600019600384901b60f8161c191690558b8080610bce565b81810135835560209485019460019093019201610bb3565b90915060038a016000526020600020601f840160051c810160208510610c5c575b90849392915b601f830160051c82018110610c4d575050610592565b60008155859450600101610c37565b5080610c31565b90506101005101358d610555565b9060028b016000526020600020906000601f198416905b818110610cc957509083600194939210610cac575b5050811b0160028a015561056c565b610100510135600019600384901b60f8161c191690558d80610c9d565b91926020600181928661010051013581550194019201610c88565b60028a01600052602060002060e0516020601f820160051c83019110610d27575b601f830160051c82018110610d1b575050610537565b60008155600101610d05565b5080610d05565b604051635a0e33b560e01b8152600490fd5b604051631208b21b60e01b8152600490fd5b5060c05115610499565b508515610492565b508115610485565b50871561047e565b60405163e6c4247b60e01b8152600490fd5b346101045760203660031901126101045761030a610da2611221565b610daa611395565b61150e565b3461010457604036600319011261010457610dc861120b565b600435600052600060205260406000209060018060a01b0316600052602052602060ff604060002054166040519015158152f35b34610104576020366003190112610104576004356001600160401b03811161010457610e38610e32610e4c9236906004016111de565b9061186e565b604051928392604084526040840190611277565b90151560208301520390f35b346101045760203660031901126101045761030a610e74611221565b610e7c611395565b6113f5565b34610104576000366003190112610104576005546000198101908111610eac57602090604051908152f35b634e487b7160e01b600052601160045260246000fd5b346101045760208060031936011261010457600435610edf611779565b50806000526004825260ff6040600020541615610fbe5760005260018152604060002090610fa0600960405193610f158561161c565b8054855260018101546001600160a01b031684860152610f37600282016117c8565b6040860152610f48600382016117c8565b6060860152610f59600482016117c8565b6080860152610f6a600582016117c8565b60a0860152610f7b600682016117c8565b60c0860152600781015460e086015260ff6008820154161515610100860152016117c8565b610120830152610fba604051928284938452830190611277565b0390f35b60405163761e55e760e01b8152600490fd5b3461010457604036600319011261010457610fe961120b565b336001600160a01b038216036110055761030a906004356115a7565b60405163334bd91960e11b8152600490fd5b346101045760403660031901126101045761030a60043561103661120b565b908060005260006020526110516001604060002001546113cf565b611495565b346101045760203660031901126101045760043560005260006020526020600160406000200154604051908152f35b34610104576020366003190112610104576004356001600160401b038111610104576110b59036906004016111de565b906110be61132d565b6110c6611737565b6110d1368383611659565b6020815191012060005260026020526040600020548015610fbe57600052600160205260086040600020019182549260ff84166111795760017f57bf3aad622f3cf905e8c86d1e40e1de99f3ea3a1c14decf97a8671c24fbe5579460ff191617905561114a604051928392604084526040840191611716565b4260208301520390a160017f9b779b17422d0df92223018b32b4d1fa46e071723d6817e2486d003becc55f0055005b604051631ba03cdd60e31b8152600490fd5b34610104576020366003190112610104576004359063ffffffff60e01b821680920361010457602091637965db0b60e01b81149081156111cd575b5015158152f35b6301ffc9a760e01b149050836111c6565b9181601f84011215610104578235916001600160401b038311610104576020838186019501011161010457565b602435906001600160a01b038216820361010457565b600435906001600160a01b038216820361010457565b919082519283825260005b848110611263575050826000602080949584010152601f8019910116010190565b602081830181015184830182015201611242565b9061132a918051825260018060a01b0360208201511660208301526112ff6112ed6112db6112c96112b760408601516101408060408a0152880190611237565b60608601518782036060890152611237565b60808501518682036080880152611237565b60a084015185820360a0870152611237565b60c083015184820360c0860152611237565b9160e082015160e0820152610100808301511515908201526101208092015191818403910152611237565b90565b3360009081527ffe6bb5ebcbfbde4272f1a8eb454cb2cf41ed231ebca0d6c27571071c322e198460205260409020546000805160206119fd8339815191529060ff16156113775750565b6044906040519063e2517d3f60e01b82523360048301526024820152fd5b3360009081527fad3228b676f7d3cd4284a5443f17f1962b36e491b30a40b2405849e597ba5fb5602052604081205460ff16156113775750565b80600052600060205260406000203360005260205260ff60406000205416156113775750565b6001600160a01b031660008181527ffe6bb5ebcbfbde4272f1a8eb454cb2cf41ed231ebca0d6c27571071c322e198460205260408120549091906000805160206119fd8339815191529060ff1661149057808352826020526040832082845260205260408320600160ff198254161790557f2f8788117e7eff1d82e926ec794901d17c78024a50270940304540a733656f0d339380a4600190565b505090565b9060009180835282602052604083209160018060a01b03169182845260205260ff6040842054161560001461149057808352826020526040832082845260205260408320600160ff198254161790557f2f8788117e7eff1d82e926ec794901d17c78024a50270940304540a733656f0d339380a4600190565b6001600160a01b031660008181527ffe6bb5ebcbfbde4272f1a8eb454cb2cf41ed231ebca0d6c27571071c322e198460205260408120549091906000805160206119fd8339815191529060ff16156114905780835282602052604083208284526020526040832060ff1981541690557ff6391f5c32d9c69d2a47ea670b442974b53935d1edc7fd64eb21e047a839171b339380a4600190565b9060009180835282602052604083209160018060a01b03169182845260205260ff6040842054166000146114905780835282602052604083208284526020526040832060ff1981541690557ff6391f5c32d9c69d2a47ea670b442974b53935d1edc7fd64eb21e047a839171b339380a4600190565b61014081019081106001600160401b0382111761084557604052565b90601f801991011681019081106001600160401b0382111761084557604052565b9291926001600160401b0382116108455760405191611682601f8201601f191660200184611638565b829481845281830111610104578281602093846000960137010152565b6000198114610eac5760010190565b90600182811c921680156116de575b60208310146116c857565b634e487b7160e01b600052602260045260246000fd5b91607f16916116bd565b80548210156117005760005260206000200190600090565b634e487b7160e01b600052603260045260246000fd5b908060209392818452848401376000828201840152601f01601f1916010190565b7f9b779b17422d0df92223018b32b4d1fa46e071723d6817e2486d003becc55f0060028154146117675760029055565b604051633ee5aeb560e01b8152600490fd5b604051906117868261161c565b81600081526000602082015261012060609182604082015282808201528260808201528260a08201528260c0820152600060e082015260006101008201520152565b90604051918260008254926117dc846116ae565b90818452600194858116908160001461184b5750600114611808575b505061180692500383611638565b565b9093915060005260209081600020936000915b818310611833575050611806935082010138806117f8565b8554888401850152948501948794509183019161181b565b91505061180694506020925060ff191682840152151560051b82010138806117f8565b6118859092919261187d611779565b933691611659565b602081519101206000908152600260205260408120549283156119725750828152600160205260ff60408083209281516118be8161161c565b8454815260018501546001600160a01b031660208201526118e1600286016117c8565b838201526118f1600386016117c8565b6060820152611902600486016117c8565b6080820152611913600586016117c8565b60a0820152611924600686016117c8565b60c0820152600785015460e08201526119506009856008880154169661010084019715158852016117c8565b6101208201529581526004602052205416908161196b575090565b9050511590565b925090565b6001600160401b0381116108455760051b60200190565b80518210156117005760209160051b010190565b6119ad913691611659565b6020815191012060009081526002602052604081205480156119f8578152600460205260ff60408220541690816119e2575090565b60ff915060406008916001602052200154161590565b509056fe990193d772e35006e4af3d68abaee0e6fcc2a81756c86cd5f6aae56a27f3c129a26469706673582212202c1d9ded6bdb47c40f26acc64356d7229963fc4ad62cd49b7bf02a97ddae0b5064736f6c63430008140033",
  "linkReferences": {},
  "deployedLinkReferences": {}
}